{
  "_format": "hh-sol-artifact-1",
  "contractName": "EpicRPS",
  "sourceName": "contracts/EpicRPS.sol",
  "abi": [
    {
      "inputs": [
        {
          "internalType": "string[]",
          "name": "characterNames",
          "type": "string[]"
        },
        {
          "internalType": "string[]",
          "name": "characterImages",
          "type": "string[]"
        },
        {
          "internalType": "uint256[]",
          "name": "characterHp",
          "type": "uint256[]"
        },
        {
          "internalType": "uint256[]",
          "name": "characterAttackDamage",
          "type": "uint256[]"
        }
      ],
      "stateMutability": "nonpayable",
      "type": "constructor"
    },
    {
      "anonymous": false,
      "inputs": [
        {
          "indexed": true,
          "internalType": "address",
          "name": "owner",
          "type": "address"
        },
        {
          "indexed": true,
          "internalType": "address",
          "name": "approved",
          "type": "address"
        },
        {
          "indexed": true,
          "internalType": "uint256",
          "name": "tokenId",
          "type": "uint256"
        }
      ],
      "name": "Approval",
      "type": "event"
    },
    {
      "anonymous": false,
      "inputs": [
        {
          "indexed": true,
          "internalType": "address",
          "name": "owner",
          "type": "address"
        },
        {
          "indexed": true,
          "internalType": "address",
          "name": "operator",
          "type": "address"
        },
        {
          "indexed": false,
          "internalType": "bool",
          "name": "approved",
          "type": "bool"
        }
      ],
      "name": "ApprovalForAll",
      "type": "event"
    },
    {
      "anonymous": false,
      "inputs": [
        {
          "indexed": false,
          "internalType": "uint256",
          "name": "BossHP",
          "type": "uint256"
        },
        {
          "indexed": false,
          "internalType": "uint256",
          "name": "playerHP",
          "type": "uint256"
        }
      ],
      "name": "BossAttacked",
      "type": "event"
    },
    {
      "anonymous": false,
      "inputs": [
        {
          "indexed": false,
          "internalType": "address",
          "name": "receiver",
          "type": "address"
        },
        {
          "indexed": false,
          "internalType": "uint256",
          "name": "nftTokenID",
          "type": "uint256"
        },
        {
          "indexed": false,
          "internalType": "uint256",
          "name": "characterIndex",
          "type": "uint256"
        }
      ],
      "name": "NFTCharacterMinted",
      "type": "event"
    },
    {
      "anonymous": false,
      "inputs": [
        {
          "indexed": true,
          "internalType": "address",
          "name": "from",
          "type": "address"
        },
        {
          "indexed": true,
          "internalType": "address",
          "name": "to",
          "type": "address"
        },
        {
          "indexed": true,
          "internalType": "uint256",
          "name": "tokenId",
          "type": "uint256"
        }
      ],
      "name": "Transfer",
      "type": "event"
    },
    {
      "inputs": [],
      "name": "Boss",
      "outputs": [
        {
          "internalType": "uint256",
          "name": "characterIndex",
          "type": "uint256"
        },
        {
          "internalType": "string",
          "name": "name",
          "type": "string"
        },
        {
          "internalType": "string",
          "name": "imageURI",
          "type": "string"
        },
        {
          "internalType": "uint256",
          "name": "hp",
          "type": "uint256"
        },
        {
          "internalType": "uint256",
          "name": "maxHP",
          "type": "uint256"
        },
        {
          "internalType": "uint256",
          "name": "attackDamage",
          "type": "uint256"
        }
      ],
      "stateMutability": "view",
      "type": "function"
    },
    {
      "inputs": [
        {
          "internalType": "address",
          "name": "to",
          "type": "address"
        },
        {
          "internalType": "uint256",
          "name": "tokenId",
          "type": "uint256"
        }
      ],
      "name": "approve",
      "outputs": [],
      "stateMutability": "nonpayable",
      "type": "function"
    },
    {
      "inputs": [],
      "name": "attackBoss",
      "outputs": [],
      "stateMutability": "nonpayable",
      "type": "function"
    },
    {
      "inputs": [
        {
          "internalType": "address",
          "name": "owner",
          "type": "address"
        }
      ],
      "name": "balanceOf",
      "outputs": [
        {
          "internalType": "uint256",
          "name": "",
          "type": "uint256"
        }
      ],
      "stateMutability": "view",
      "type": "function"
    },
    {
      "inputs": [],
      "name": "checkIfUserHasNFT",
      "outputs": [
        {
          "components": [
            {
              "internalType": "uint256",
              "name": "characterIndex",
              "type": "uint256"
            },
            {
              "internalType": "string",
              "name": "name",
              "type": "string"
            },
            {
              "internalType": "string",
              "name": "imageURI",
              "type": "string"
            },
            {
              "internalType": "uint256",
              "name": "hp",
              "type": "uint256"
            },
            {
              "internalType": "uint256",
              "name": "maxHP",
              "type": "uint256"
            },
            {
              "internalType": "uint256",
              "name": "attackDamage",
              "type": "uint256"
            }
          ],
          "internalType": "struct EpicRPS.CharacterAttributes",
          "name": "",
          "type": "tuple"
        }
      ],
      "stateMutability": "view",
      "type": "function"
    },
    {
      "inputs": [],
      "name": "getAllDefaultCharacters",
      "outputs": [
        {
          "components": [
            {
              "internalType": "uint256",
              "name": "characterIndex",
              "type": "uint256"
            },
            {
              "internalType": "string",
              "name": "name",
              "type": "string"
            },
            {
              "internalType": "string",
              "name": "imageURI",
              "type": "string"
            },
            {
              "internalType": "uint256",
              "name": "hp",
              "type": "uint256"
            },
            {
              "internalType": "uint256",
              "name": "maxHP",
              "type": "uint256"
            },
            {
              "internalType": "uint256",
              "name": "attackDamage",
              "type": "uint256"
            }
          ],
          "internalType": "struct EpicRPS.CharacterAttributes[]",
          "name": "",
          "type": "tuple[]"
        }
      ],
      "stateMutability": "view",
      "type": "function"
    },
    {
      "inputs": [
        {
          "internalType": "uint256",
          "name": "tokenId",
          "type": "uint256"
        }
      ],
      "name": "getApproved",
      "outputs": [
        {
          "internalType": "address",
          "name": "",
          "type": "address"
        }
      ],
      "stateMutability": "view",
      "type": "function"
    },
    {
      "inputs": [],
      "name": "getBigBoss",
      "outputs": [
        {
          "components": [
            {
              "internalType": "uint256",
              "name": "characterIndex",
              "type": "uint256"
            },
            {
              "internalType": "string",
              "name": "name",
              "type": "string"
            },
            {
              "internalType": "string",
              "name": "imageURI",
              "type": "string"
            },
            {
              "internalType": "uint256",
              "name": "hp",
              "type": "uint256"
            },
            {
              "internalType": "uint256",
              "name": "maxHP",
              "type": "uint256"
            },
            {
              "internalType": "uint256",
              "name": "attackDamage",
              "type": "uint256"
            }
          ],
          "internalType": "struct EpicRPS.CharacterAttributes",
          "name": "",
          "type": "tuple"
        }
      ],
      "stateMutability": "view",
      "type": "function"
    },
    {
      "inputs": [],
      "name": "getMintedNFT",
      "outputs": [
        {
          "internalType": "string",
          "name": "",
          "type": "string"
        }
      ],
      "stateMutability": "view",
      "type": "function"
    },
    {
      "inputs": [
        {
          "internalType": "address",
          "name": "owner",
          "type": "address"
        },
        {
          "internalType": "address",
          "name": "operator",
          "type": "address"
        }
      ],
      "name": "isApprovedForAll",
      "outputs": [
        {
          "internalType": "bool",
          "name": "",
          "type": "bool"
        }
      ],
      "stateMutability": "view",
      "type": "function"
    },
    {
      "inputs": [
        {
          "internalType": "uint256",
          "name": "_indexOfCharacter",
          "type": "uint256"
        }
      ],
      "name": "mintNFTCharacter",
      "outputs": [],
      "stateMutability": "nonpayable",
      "type": "function"
    },
    {
      "inputs": [],
      "name": "name",
      "outputs": [
        {
          "internalType": "string",
          "name": "",
          "type": "string"
        }
      ],
      "stateMutability": "view",
      "type": "function"
    },
    {
      "inputs": [
        {
          "internalType": "uint256",
          "name": "",
          "type": "uint256"
        }
      ],
      "name": "nftCharacters",
      "outputs": [
        {
          "internalType": "uint256",
          "name": "characterIndex",
          "type": "uint256"
        },
        {
          "internalType": "string",
          "name": "name",
          "type": "string"
        },
        {
          "internalType": "string",
          "name": "imageURI",
          "type": "string"
        },
        {
          "internalType": "uint256",
          "name": "hp",
          "type": "uint256"
        },
        {
          "internalType": "uint256",
          "name": "maxHP",
          "type": "uint256"
        },
        {
          "internalType": "uint256",
          "name": "attackDamage",
          "type": "uint256"
        }
      ],
      "stateMutability": "view",
      "type": "function"
    },
    {
      "inputs": [
        {
          "internalType": "address",
          "name": "",
          "type": "address"
        }
      ],
      "name": "nftHolders",
      "outputs": [
        {
          "internalType": "uint256",
          "name": "",
          "type": "uint256"
        }
      ],
      "stateMutability": "view",
      "type": "function"
    },
    {
      "inputs": [
        {
          "internalType": "uint256",
          "name": "tokenId",
          "type": "uint256"
        }
      ],
      "name": "ownerOf",
      "outputs": [
        {
          "internalType": "address",
          "name": "",
          "type": "address"
        }
      ],
      "stateMutability": "view",
      "type": "function"
    },
    {
      "inputs": [
        {
          "internalType": "address",
          "name": "from",
          "type": "address"
        },
        {
          "internalType": "address",
          "name": "to",
          "type": "address"
        },
        {
          "internalType": "uint256",
          "name": "tokenId",
          "type": "uint256"
        }
      ],
      "name": "safeTransferFrom",
      "outputs": [],
      "stateMutability": "nonpayable",
      "type": "function"
    },
    {
      "inputs": [
        {
          "internalType": "address",
          "name": "from",
          "type": "address"
        },
        {
          "internalType": "address",
          "name": "to",
          "type": "address"
        },
        {
          "internalType": "uint256",
          "name": "tokenId",
          "type": "uint256"
        },
        {
          "internalType": "bytes",
          "name": "_data",
          "type": "bytes"
        }
      ],
      "name": "safeTransferFrom",
      "outputs": [],
      "stateMutability": "nonpayable",
      "type": "function"
    },
    {
      "inputs": [
        {
          "internalType": "address",
          "name": "operator",
          "type": "address"
        },
        {
          "internalType": "bool",
          "name": "approved",
          "type": "bool"
        }
      ],
      "name": "setApprovalForAll",
      "outputs": [],
      "stateMutability": "nonpayable",
      "type": "function"
    },
    {
      "inputs": [
        {
          "internalType": "bytes4",
          "name": "interfaceId",
          "type": "bytes4"
        }
      ],
      "name": "supportsInterface",
      "outputs": [
        {
          "internalType": "bool",
          "name": "",
          "type": "bool"
        }
      ],
      "stateMutability": "view",
      "type": "function"
    },
    {
      "inputs": [],
      "name": "symbol",
      "outputs": [
        {
          "internalType": "string",
          "name": "",
          "type": "string"
        }
      ],
      "stateMutability": "view",
      "type": "function"
    },
    {
      "inputs": [
        {
          "internalType": "uint256",
          "name": "_tokenID",
          "type": "uint256"
        }
      ],
      "name": "tokenURI",
      "outputs": [
        {
          "internalType": "string",
          "name": "",
          "type": "string"
        }
      ],
      "stateMutability": "view",
      "type": "function"
    },
    {
      "inputs": [
        {
          "internalType": "address",
          "name": "from",
          "type": "address"
        },
        {
          "internalType": "address",
          "name": "to",
          "type": "address"
        },
        {
          "internalType": "uint256",
          "name": "tokenId",
          "type": "uint256"
        }
      ],
      "name": "transferFrom",
      "outputs": [],
      "stateMutability": "nonpayable",
      "type": "function"
    }
  ],
  "bytecode": "0x60806040523480156200001157600080fd5b506040516200555238038062005552833981810160405281019062000037919062000a62565b6040518060400160405280600581526020017f4a6177616e0000000000000000000000000000000000000000000000000000008152506040518060400160405280600381526020017f4a574e00000000000000000000000000000000000000000000000000000000008152508160009080519060200190620000bb929190620007f5565b508060019080519060200190620000d4929190620007f5565b5050506040518060c00160405280600081526020018560008151811062000124577f4e487b7100000000000000000000000000000000000000000000000000000000600052603260045260246000fd5b60200260200101518152602001846000815181106200016c577f4e487b7100000000000000000000000000000000000000000000000000000000600052603260045260246000fd5b6020026020010151815260200183600081518110620001b4577f4e487b7100000000000000000000000000000000000000000000000000000000600052603260045260246000fd5b6020026020010151815260200183600081518110620001fc577f4e487b7100000000000000000000000000000000000000000000000000000000600052603260045260246000fd5b602002602001015181526020018260008151811062000244577f4e487b7100000000000000000000000000000000000000000000000000000000600052603260045260246000fd5b6020026020010151815250600a60008201518160000155602082015181600101908051906020019062000279929190620007f5565b50604082015181600201908051906020019062000298929190620007f5565b50606082015181600301556080820151816004015560a082015181600501559050506000600190505b8451811015620006e85760076040518060c0016040528083815260200187848151811062000318577f4e487b7100000000000000000000000000000000000000000000000000000000600052603260045260246000fd5b602002602001015181526020018684815181106200035f577f4e487b7100000000000000000000000000000000000000000000000000000000600052603260045260246000fd5b60200260200101518152602001858481518110620003a6577f4e487b7100000000000000000000000000000000000000000000000000000000600052603260045260246000fd5b60200260200101518152602001858481518110620003ed577f4e487b7100000000000000000000000000000000000000000000000000000000600052603260045260246000fd5b6020026020010151815260200184848151811062000434577f4e487b7100000000000000000000000000000000000000000000000000000000600052603260045260246000fd5b6020026020010151815250908060018154018082558091505060019003906000526020600020906006020160009091909190915060008201518160000155602082015181600101908051906020019062000490929190620007f5565b506040820151816002019080519060200190620004af929190620007f5565b50606082015181600301556080820151816004015560a08201518160050155505060006007600183620004e3919062000d24565b815481106200051b577f4e487b7100000000000000000000000000000000000000000000000000000000600052603260045260246000fd5b90600052602060002090600602016040518060c001604052908160008201548152602001600182018054620005509062000d9f565b80601f01602080910402602001604051908101604052809291908181526020018280546200057e9062000d9f565b8015620005cf5780601f10620005a357610100808354040283529160200191620005cf565b820191906000526020600020905b815481529060010190602001808311620005b157829003601f168201915b50505050508152602001600282018054620005ea9062000d9f565b80601f0160208091040260200160405190810160405280929190818152602001828054620006189062000d9f565b8015620006695780601f106200063d5761010080835404028352916020019162000669565b820191906000526020600020905b8154815290600101906020018083116200064b57829003601f168201915b5050505050815260200160038201548152602001600482015481526020016005820154815250509050620006d06040518060600160405280602581526020016200552d602591398260200151836060015184604001516200070a60201b62001d1d1760201c565b50600181620006e0919062000cc7565b9050620002c1565b50620007006006620007b660201b62001dbf1760201c565b5050505062000e8d565b620007b08484848460405160240162000727949392919062000b84565b6040516020818303038152906040527f8d142cdd000000000000000000000000000000000000000000000000000000007bffffffffffffffffffffffffffffffffffffffffffffffffffffffff19166020820180517bffffffffffffffffffffffffffffffffffffffffffffffffffffffff8381831617835250505050620007cc60201b60201c565b50505050565b6001816000016000828254019250508190555050565b60008151905060006a636f6e736f6c652e6c6f679050602083016000808483855afa5050505050565b828054620008039062000d9f565b90600052602060002090601f01602090048101928262000827576000855562000873565b82601f106200084257805160ff191683800117855562000873565b8280016001018555821562000873579182015b828111156200087257825182559160200191906001019062000855565b5b50905062000882919062000886565b5090565b5b80821115620008a157600081600090555060010162000887565b5090565b6000620008bc620008b68462000c1a565b62000be6565b9050808382526020820190508260005b85811015620009005781518501620008e5888262000a1e565b845260208401935060208301925050600181019050620008cc565b5050509392505050565b6000620009216200091b8462000c49565b62000be6565b905080838252602082019050828560208602820111156200094157600080fd5b60005b858110156200097557816200095a888262000a4b565b84526020840193506020830192505060018101905062000944565b5050509392505050565b600062000996620009908462000c78565b62000be6565b905082815260208101848484011115620009af57600080fd5b620009bc84828562000d69565b509392505050565b600082601f830112620009d657600080fd5b8151620009e8848260208601620008a5565b91505092915050565b600082601f83011262000a0357600080fd5b815162000a158482602086016200090a565b91505092915050565b600082601f83011262000a3057600080fd5b815162000a428482602086016200097f565b91505092915050565b60008151905062000a5c8162000e73565b92915050565b6000806000806080858703121562000a7957600080fd5b600085015167ffffffffffffffff81111562000a9457600080fd5b62000aa287828801620009c4565b945050602085015167ffffffffffffffff81111562000ac057600080fd5b62000ace87828801620009c4565b935050604085015167ffffffffffffffff81111562000aec57600080fd5b62000afa87828801620009f1565b925050606085015167ffffffffffffffff81111562000b1857600080fd5b62000b2687828801620009f1565b91505092959194509250565b600062000b3f8262000cab565b62000b4b818562000cb6565b935062000b5d81856020860162000d69565b62000b688162000e62565b840191505092915050565b62000b7e8162000d5f565b82525050565b6000608082019050818103600083015262000ba0818762000b32565b9050818103602083015262000bb6818662000b32565b905062000bc7604083018562000b73565b818103606083015262000bdb818462000b32565b905095945050505050565b6000604051905081810181811067ffffffffffffffff8211171562000c105762000c0f62000e33565b5b8060405250919050565b600067ffffffffffffffff82111562000c385762000c3762000e33565b5b602082029050602081019050919050565b600067ffffffffffffffff82111562000c675762000c6662000e33565b5b602082029050602081019050919050565b600067ffffffffffffffff82111562000c965762000c9562000e33565b5b601f19601f8301169050602081019050919050565b600081519050919050565b600082825260208201905092915050565b600062000cd48262000d5f565b915062000ce18362000d5f565b9250827fffffffffffffffffffffffffffffffffffffffffffffffffffffffffffffffff0382111562000d195762000d1862000dd5565b5b828201905092915050565b600062000d318262000d5f565b915062000d3e8362000d5f565b92508282101562000d545762000d5362000dd5565b5b828203905092915050565b6000819050919050565b60005b8381101562000d8957808201518184015260208101905062000d6c565b8381111562000d99576000848401525b50505050565b6000600282049050600182168062000db857607f821691505b6020821081141562000dcf5762000dce62000e04565b5b50919050565b7f4e487b7100000000000000000000000000000000000000000000000000000000600052601160045260246000fd5b7f4e487b7100000000000000000000000000000000000000000000000000000000600052602260045260246000fd5b7f4e487b7100000000000000000000000000000000000000000000000000000000600052604160045260246000fd5b6000601f19601f8301169050919050565b62000e7e8162000d5f565b811462000e8a57600080fd5b50565b6146908062000e9d6000396000f3fe608060405234801561001057600080fd5b50600436106101425760003560e01c806395d89b41116100b8578063b953084e1161007c578063b953084e1461038c578063c87b56dd146103aa578063c8cf27f4146103da578063d4f24c5b146103f8578063e860a07c14610402578063e985e9c51461042557610142565b806395d89b41146102e5578063a22cb46514610303578063a8822de41461031f578063b14b307a14610354578063b88d4fde1461037057610142565b80631bcffe811161010a5780631bcffe81146101ff57806323b872dd1461021d57806342842e0e146102395780636352211e1461025557806370a08231146102855780637df124a1146102b557610142565b806301ffc9a7146101475780630665f9611461017757806306fdde0314610195578063081812fc146101b3578063095ea7b3146101e3575b600080fd5b610161600480360381019061015c9190613077565b610455565b60405161016e9190613d34565b60405180910390f35b61017f610537565b60405161018c919061402e565b60405180910390f35b61019d61069d565b6040516101aa9190613d4f565b60405180910390f35b6101cd60048036038101906101c891906130c9565b61072f565b6040516101da9190613c74565b60405180910390f35b6101fd60048036038101906101f8919061303b565b6107b4565b005b6102076108cc565b6040516102149190613d4f565b60405180910390f35b61023760048036038101906102329190612f35565b610943565b005b610253600480360381019061024e9190612f35565b6109a3565b005b61026f600480360381019061026a91906130c9565b6109c3565b60405161027c9190613c74565b60405180910390f35b61029f600480360381019061029a9190612ed0565b610a75565b6040516102ac9190614050565b60405180910390f35b6102cf60048036038101906102ca9190612ed0565b610b2d565b6040516102dc9190614050565b60405180910390f35b6102ed610b45565b6040516102fa9190613d4f565b60405180910390f35b61031d60048036038101906103189190612fff565b610bd7565b005b610339600480360381019061033491906130c9565b610bed565b60405161034b9695949392919061406b565b60405180910390f35b61036e600480360381019061036991906130c9565b610d39565b005b61038a60048036038101906103859190612f84565b61110a565b005b61039461116c565b6040516103a19190613d12565b60405180910390f35b6103c460048036038101906103bf91906130c9565b611317565b6040516103d19190613d4f565b60405180910390f35b6103e2611520565b6040516103ef919061402e565b60405180910390f35b6104006116f8565b005b61040a611b4f565b60405161041c9695949392919061406b565b60405180910390f35b61043f600480360381019061043a9190612ef9565b611c89565b60405161044c9190613d34565b60405180910390f35b60007f80ac58cd000000000000000000000000000000000000000000000000000000007bffffffffffffffffffffffffffffffffffffffffffffffffffffffff1916827bffffffffffffffffffffffffffffffffffffffffffffffffffffffff1916148061052057507f5b5e139f000000000000000000000000000000000000000000000000000000007bffffffffffffffffffffffffffffffffffffffffffffffffffffffff1916827bffffffffffffffffffffffffffffffffffffffffffffffffffffffff1916145b80610530575061052f82611dd5565b5b9050919050565b61053f612d26565b600a6040518060c001604052908160008201548152602001600182018054610566906143bc565b80601f0160208091040260200160405190810160405280929190818152602001828054610592906143bc565b80156105df5780601f106105b4576101008083540402835291602001916105df565b820191906000526020600020905b8154815290600101906020018083116105c257829003601f168201915b505050505081526020016002820180546105f8906143bc565b80601f0160208091040260200160405190810160405280929190818152602001828054610624906143bc565b80156106715780601f1061064657610100808354040283529160200191610671565b820191906000526020600020905b81548152906001019060200180831161065457829003601f168201915b505050505081526020016003820154815260200160048201548152602001600582015481525050905090565b6060600080546106ac906143bc565b80601f01602080910402602001604051908101604052809291908181526020018280546106d8906143bc565b80156107255780601f106106fa57610100808354040283529160200191610725565b820191906000526020600020905b81548152906001019060200180831161070857829003601f168201915b5050505050905090565b600061073a82611e3f565b610779576040517f08c379a000000000000000000000000000000000000000000000000000000000815260040161077090613f8e565b60405180910390fd5b6004600083815260200190815260200160002060009054906101000a900473ffffffffffffffffffffffffffffffffffffffff169050919050565b60006107bf826109c3565b90508073ffffffffffffffffffffffffffffffffffffffff168373ffffffffffffffffffffffffffffffffffffffff161415610830576040517f08c379a000000000000000000000000000000000000000000000000000000000815260040161082790613fce565b60405180910390fd5b8073ffffffffffffffffffffffffffffffffffffffff1661084f611eab565b73ffffffffffffffffffffffffffffffffffffffff16148061087e575061087d81610878611eab565b611c89565b5b6108bd576040517f08c379a00000000000000000000000000000000000000000000000000000000081526004016108b490613eee565b60405180910390fd5b6108c78383611eb3565b505050565b60606000600960003373ffffffffffffffffffffffffffffffffffffffff1673ffffffffffffffffffffffffffffffffffffffff168152602001908152602001600020549050600081111561092c5761092481611317565b915050610940565b604051806020016040528060008152509150505b90565b61095461094e611eab565b82611f6c565b610993576040517f08c379a000000000000000000000000000000000000000000000000000000000815260040161098a9061400e565b60405180910390fd5b61099e83838361204a565b505050565b6109be8383836040518060200160405280600081525061110a565b505050565b6000806002600084815260200190815260200160002060009054906101000a900473ffffffffffffffffffffffffffffffffffffffff169050600073ffffffffffffffffffffffffffffffffffffffff168173ffffffffffffffffffffffffffffffffffffffff161415610a6c576040517f08c379a0000000000000000000000000000000000000000000000000000000008152600401610a6390613f2e565b60405180910390fd5b80915050919050565b60008073ffffffffffffffffffffffffffffffffffffffff168273ffffffffffffffffffffffffffffffffffffffff161415610ae6576040517f08c379a0000000000000000000000000000000000000000000000000000000008152600401610add90613f0e565b60405180910390fd5b600360008373ffffffffffffffffffffffffffffffffffffffff1673ffffffffffffffffffffffffffffffffffffffff168152602001908152602001600020549050919050565b60096020528060005260406000206000915090505481565b606060018054610b54906143bc565b80601f0160208091040260200160405190810160405280929190818152602001828054610b80906143bc565b8015610bcd5780601f10610ba257610100808354040283529160200191610bcd565b820191906000526020600020905b815481529060010190602001808311610bb057829003601f168201915b5050505050905090565b610be9610be2611eab565b83836122a6565b5050565b6008602052806000526040600020600091509050806000015490806001018054610c16906143bc565b80601f0160208091040260200160405190810160405280929190818152602001828054610c42906143bc565b8015610c8f5780601f10610c6457610100808354040283529160200191610c8f565b820191906000526020600020905b815481529060010190602001808311610c7257829003601f168201915b505050505090806002018054610ca4906143bc565b80601f0160208091040260200160405190810160405280929190818152602001828054610cd0906143bc565b8015610d1d5780601f10610cf257610100808354040283529160200191610d1d565b820191906000526020600020905b815481529060010190602001808311610d0057829003601f168201915b5050505050908060030154908060040154908060050154905086565b6000610d456006612413565b9050610d513382612421565b6040518060c0016040528083815260200160078481548110610d9c577f4e487b7100000000000000000000000000000000000000000000000000000000600052603260045260246000fd5b90600052602060002090600602016001018054610db8906143bc565b80601f0160208091040260200160405190810160405280929190818152602001828054610de4906143bc565b8015610e315780601f10610e0657610100808354040283529160200191610e31565b820191906000526020600020905b815481529060010190602001808311610e1457829003601f168201915b5050505050815260200160078481548110610e75577f4e487b7100000000000000000000000000000000000000000000000000000000600052603260045260246000fd5b90600052602060002090600602016002018054610e91906143bc565b80601f0160208091040260200160405190810160405280929190818152602001828054610ebd906143bc565b8015610f0a5780601f10610edf57610100808354040283529160200191610f0a565b820191906000526020600020905b815481529060010190602001808311610eed57829003601f168201915b5050505050815260200160078481548110610f4e577f4e487b7100000000000000000000000000000000000000000000000000000000600052603260045260246000fd5b906000526020600020906006020160030154815260200160078481548110610f9f577f4e487b7100000000000000000000000000000000000000000000000000000000600052603260045260246000fd5b906000526020600020906006020160040154815260200160078481548110610ff0577f4e487b7100000000000000000000000000000000000000000000000000000000600052603260045260246000fd5b9060005260206000209060060201600501548152506008600083815260200190815260200160002060008201518160000155602082015181600101908051906020019061103e929190612d5c565b50604082015181600201908051906020019061105b929190612d5c565b50606082015181600301556080820151816004015560a0820151816005015590505080600960003373ffffffffffffffffffffffffffffffffffffffff1673ffffffffffffffffffffffffffffffffffffffff168152602001908152602001600020819055507f34cebd0c54f5217dcedda1323c32cbd31ee0eb79a32f25829f2af8b89045df203382846040516110f493929190613cdb565b60405180910390a16111066006611dbf565b5050565b61111b611115611eab565b83611f6c565b61115a576040517f08c379a00000000000000000000000000000000000000000000000000000000081526004016111519061400e565b60405180910390fd5b6111668484848461243f565b50505050565b60606007805480602002602001604051908101604052809291908181526020016000905b8282101561130e57838290600052602060002090600602016040518060c0016040529081600082015481526020016001820180546111cd906143bc565b80601f01602080910402602001604051908101604052809291908181526020018280546111f9906143bc565b80156112465780601f1061121b57610100808354040283529160200191611246565b820191906000526020600020905b81548152906001019060200180831161122957829003601f168201915b5050505050815260200160028201805461125f906143bc565b80601f016020809104026020016040519081016040528092919081815260200182805461128b906143bc565b80156112d85780601f106112ad576101008083540402835291602001916112d8565b820191906000526020600020905b8154815290600101906020018083116112bb57829003601f168201915b50505050508152602001600382015481526020016004820154815260200160058201548152505081526020019060010190611190565b50505050905090565b60606000600860008481526020019081526020016000206040518060c001604052908160008201548152602001600182018054611353906143bc565b80601f016020809104026020016040519081016040528092919081815260200182805461137f906143bc565b80156113cc5780601f106113a1576101008083540402835291602001916113cc565b820191906000526020600020905b8154815290600101906020018083116113af57829003601f168201915b505050505081526020016002820180546113e5906143bc565b80601f0160208091040260200160405190810160405280929190818152602001828054611411906143bc565b801561145e5780601f106114335761010080835404028352916020019161145e565b820191906000526020600020905b81548152906001019060200180831161144157829003601f168201915b505050505081526020016003820154815260200160048201548152602001600582015481525050905060006114ef826020015161149a8661249b565b84604001516114ac866060015161249b565b6114b9876080015161249b565b6114c68860a0015161249b565b6040516020016114db96959493929190613bad565b604051602081830303815290604052612648565b90506000816040516020016115049190613c52565b6040516020818303038152906040529050809350505050919050565b611528612d26565b6000600960003373ffffffffffffffffffffffffffffffffffffffff1673ffffffffffffffffffffffffffffffffffffffff16815260200190815260200160002054905060008111156116e757600860008281526020019081526020016000206040518060c0016040529081600082015481526020016001820180546115ad906143bc565b80601f01602080910402602001604051908101604052809291908181526020018280546115d9906143bc565b80156116265780601f106115fb57610100808354040283529160200191611626565b820191906000526020600020905b81548152906001019060200180831161160957829003601f168201915b5050505050815260200160028201805461163f906143bc565b80601f016020809104026020016040519081016040528092919081815260200182805461166b906143bc565b80156116b85780601f1061168d576101008083540402835291602001916116b8565b820191906000526020600020905b81548152906001019060200180831161169b57829003601f168201915b5050505050815260200160038201548152602001600482015481526020016005820154815250509150506116f5565b6116ef612d26565b80925050505b90565b6000600960003373ffffffffffffffffffffffffffffffffffffffff1673ffffffffffffffffffffffffffffffffffffffff16815260200190815260200160002054905061177b6040518060400160405280601581526020017f55736572206861732074686520746f6b656e2025640000000000000000000000815250826127e7565b6000600860008381526020019081526020016000206040518060c0016040529081600082015481526020016001820180546117b5906143bc565b80601f01602080910402602001604051908101604052809291908181526020018280546117e1906143bc565b801561182e5780601f106118035761010080835404028352916020019161182e565b820191906000526020600020905b81548152906001019060200180831161181157829003601f168201915b50505050508152602001600282018054611847906143bc565b80601f0160208091040260200160405190810160405280929190818152602001828054611873906143bc565b80156118c05780601f10611895576101008083540402835291602001916118c0565b820191906000526020600020905b8154815290600101906020018083116118a357829003601f168201915b50505050508152602001600382015481526020016004820154815260200160058201548152505090506119196040518060600160405280603c815260200161461f603c9139826020015183606001518460a00151612883565b6119f16040518060400160405280601b81526020017f426f73732025732068617320257320485020616e642025732041440000000000815250600a6001018054611962906143bc565b80601f016020809104026020016040519081016040528092919081815260200182805461198e906143bc565b80156119db5780601f106119b0576101008083540402835291602001916119db565b820191906000526020600020905b8154815290600101906020018083116119be57829003601f168201915b5050505050600a60030154600a60050154612883565b6000816060015111611a38576040517f08c379a0000000000000000000000000000000000000000000000000000000008152600401611a2f90613fee565b60405180910390fd5b6000600a6003015411611a80576040517f08c379a0000000000000000000000000000000000000000000000000000000008152600401611a7790613f6e565b60405180910390fd5b8060a00151600a60030154611a9591906142d2565b600a60030181905550600a600501548160600151611ab391906142d2565b8160600181815250507fd8e4022280e3d44bc7867ba2c98162d6a3a001b724774c11840af63d4d63db5f600a600301548260600151604051611af69291906140da565b60405180910390a1611b2560405180606001604052806025815260200161459260259139600a600301546127e7565b611b4b6040518060600160405280602881526020016145f76028913982606001516127e7565b5050565b600a806000015490806001018054611b66906143bc565b80601f0160208091040260200160405190810160405280929190818152602001828054611b92906143bc565b8015611bdf5780601f10611bb457610100808354040283529160200191611bdf565b820191906000526020600020905b815481529060010190602001808311611bc257829003601f168201915b505050505090806002018054611bf4906143bc565b80601f0160208091040260200160405190810160405280929190818152602001828054611c20906143bc565b8015611c6d5780601f10611c4257610100808354040283529160200191611c6d565b820191906000526020600020905b815481529060010190602001808311611c5057829003601f168201915b5050505050908060030154908060040154908060050154905086565b6000600560008473ffffffffffffffffffffffffffffffffffffffff1673ffffffffffffffffffffffffffffffffffffffff16815260200190815260200160002060008373ffffffffffffffffffffffffffffffffffffffff1673ffffffffffffffffffffffffffffffffffffffff16815260200190815260200160002060009054906101000a900460ff16905092915050565b611db984848484604051602401611d379493929190613d71565b6040516020818303038152906040527f8d142cdd000000000000000000000000000000000000000000000000000000007bffffffffffffffffffffffffffffffffffffffffffffffffffffffff19166020820180517bffffffffffffffffffffffffffffffffffffffffffffffffffffffff8381831617835250505050612925565b50505050565b6001816000016000828254019250508190555050565b60007f01ffc9a7000000000000000000000000000000000000000000000000000000007bffffffffffffffffffffffffffffffffffffffffffffffffffffffff1916827bffffffffffffffffffffffffffffffffffffffffffffffffffffffff1916149050919050565b60008073ffffffffffffffffffffffffffffffffffffffff166002600084815260200190815260200160002060009054906101000a900473ffffffffffffffffffffffffffffffffffffffff1673ffffffffffffffffffffffffffffffffffffffff1614159050919050565b600033905090565b816004600083815260200190815260200160002060006101000a81548173ffffffffffffffffffffffffffffffffffffffff021916908373ffffffffffffffffffffffffffffffffffffffff160217905550808273ffffffffffffffffffffffffffffffffffffffff16611f26836109c3565b73ffffffffffffffffffffffffffffffffffffffff167f8c5be1e5ebec7d5bd14f71427d1e84f3dd0314c0f7b2291e5b200ac8c7c3b92560405160405180910390a45050565b6000611f7782611e3f565b611fb6576040517f08c379a0000000000000000000000000000000000000000000000000000000008152600401611fad90613ece565b60405180910390fd5b6000611fc1836109c3565b90508073ffffffffffffffffffffffffffffffffffffffff168473ffffffffffffffffffffffffffffffffffffffff16148061203057508373ffffffffffffffffffffffffffffffffffffffff166120188461072f565b73ffffffffffffffffffffffffffffffffffffffff16145b8061204157506120408185611c89565b5b91505092915050565b8273ffffffffffffffffffffffffffffffffffffffff1661206a826109c3565b73ffffffffffffffffffffffffffffffffffffffff16146120c0576040517f08c379a00000000000000000000000000000000000000000000000000000000081526004016120b790613fae565b60405180910390fd5b600073ffffffffffffffffffffffffffffffffffffffff168273ffffffffffffffffffffffffffffffffffffffff161415612130576040517f08c379a000000000000000000000000000000000000000000000000000000000815260040161212790613e8e565b60405180910390fd5b61213b83838361294e565b612146600082611eb3565b6001600360008573ffffffffffffffffffffffffffffffffffffffff1673ffffffffffffffffffffffffffffffffffffffff168152602001908152602001600020600082825461219691906142d2565b925050819055506001600360008473ffffffffffffffffffffffffffffffffffffffff1673ffffffffffffffffffffffffffffffffffffffff16815260200190815260200160002060008282546121ed91906141f1565b92505081905550816002600083815260200190815260200160002060006101000a81548173ffffffffffffffffffffffffffffffffffffffff021916908373ffffffffffffffffffffffffffffffffffffffff160217905550808273ffffffffffffffffffffffffffffffffffffffff168473ffffffffffffffffffffffffffffffffffffffff167fddf252ad1be2c89b69c2b068fc378daa952ba7f163c4a11628f55a4df523b3ef60405160405180910390a4505050565b8173ffffffffffffffffffffffffffffffffffffffff168373ffffffffffffffffffffffffffffffffffffffff161415612315576040517f08c379a000000000000000000000000000000000000000000000000000000000815260040161230c90613eae565b60405180910390fd5b80600560008573ffffffffffffffffffffffffffffffffffffffff1673ffffffffffffffffffffffffffffffffffffffff16815260200190815260200160002060008473ffffffffffffffffffffffffffffffffffffffff1673ffffffffffffffffffffffffffffffffffffffff16815260200190815260200160002060006101000a81548160ff0219169083151502179055508173ffffffffffffffffffffffffffffffffffffffff168373ffffffffffffffffffffffffffffffffffffffff167f17307eab39ab6107e8899845ad3d59bd9653f200f220920489ca2b5937696c31836040516124069190613d34565b60405180910390a3505050565b600081600001549050919050565b61243b828260405180602001604052806000815250612953565b5050565b61244a84848461204a565b612456848484846129ae565b612495576040517f08c379a000000000000000000000000000000000000000000000000000000000815260040161248c90613e4e565b60405180910390fd5b50505050565b606060008214156124e3576040518060400160405280600181526020017f30000000000000000000000000000000000000000000000000000000000000008152509050612643565b600082905060005b600082146125155780806124fe906143ee565b915050600a8261250e9190614247565b91506124eb565b60008167ffffffffffffffff811115612557577f4e487b7100000000000000000000000000000000000000000000000000000000600052604160045260246000fd5b6040519080825280601f01601f1916602001820160405280156125895781602001600182028036833780820191505090505b5090505b6000851461263c576001826125a291906142d2565b9150600a856125b19190614437565b60306125bd91906141f1565b60f81b8183815181106125f9577f4e487b7100000000000000000000000000000000000000000000000000000000600052603260045260246000fd5b60200101907effffffffffffffffffffffffffffffffffffffffffffffffffffffffffffff1916908160001a905350600a856126359190614247565b945061258d565b8093505050505b919050565b606060008251141561266b576040518060200160405280600081525090506127e2565b60006040518060600160405280604081526020016145b7604091399050600060036002855161269a91906141f1565b6126a49190614247565b60046126b09190614278565b905060006020826126c191906141f1565b67ffffffffffffffff811115612700577f4e487b7100000000000000000000000000000000000000000000000000000000600052604160045260246000fd5b6040519080825280601f01601f1916602001820160405280156127325781602001600182028036833780820191505090505b509050818152600183018586518101602084015b818310156127a1576003830192508251603f8160121c168501518253600182019150603f81600c1c168501518253600182019150603f8160061c168501518253600182019150603f8116850151825360018201915050612746565b6003895106600181146127bb57600281146127cb576127d6565b613d3d60f01b60028303526127d6565b603d60f81b60018303525b50505050508093505050505b919050565b61287f82826040516024016127fd929190613e1e565b6040516020818303038152906040527f9710a9d0000000000000000000000000000000000000000000000000000000007bffffffffffffffffffffffffffffffffffffffffffffffffffffffff19166020820180517bffffffffffffffffffffffffffffffffffffffffffffffffffffffff8381831617835250505050612925565b5050565b61291f8484848460405160240161289d9493929190613dcb565b6040516020818303038152906040527fd5cf17d0000000000000000000000000000000000000000000000000000000007bffffffffffffffffffffffffffffffffffffffffffffffffffffffff19166020820180517bffffffffffffffffffffffffffffffffffffffffffffffffffffffff8381831617835250505050612925565b50505050565b60008151905060006a636f6e736f6c652e6c6f679050602083016000808483855afa5050505050565b505050565b61295d8383612b45565b61296a60008484846129ae565b6129a9576040517f08c379a00000000000000000000000000000000000000000000000000000000081526004016129a090613e4e565b60405180910390fd5b505050565b60006129cf8473ffffffffffffffffffffffffffffffffffffffff16612d13565b15612b38578373ffffffffffffffffffffffffffffffffffffffff1663150b7a026129f8611eab565b8786866040518563ffffffff1660e01b8152600401612a1a9493929190613c8f565b602060405180830381600087803b158015612a3457600080fd5b505af1925050508015612a6557506040513d601f19601f82011682018060405250810190612a6291906130a0565b60015b612ae8573d8060008114612a95576040519150601f19603f3d011682016040523d82523d6000602084013e612a9a565b606091505b50600081511415612ae0576040517f08c379a0000000000000000000000000000000000000000000000000000000008152600401612ad790613e4e565b60405180910390fd5b805181602001fd5b63150b7a0260e01b7bffffffffffffffffffffffffffffffffffffffffffffffffffffffff1916817bffffffffffffffffffffffffffffffffffffffffffffffffffffffff191614915050612b3d565b600190505b949350505050565b600073ffffffffffffffffffffffffffffffffffffffff168273ffffffffffffffffffffffffffffffffffffffff161415612bb5576040517f08c379a0000000000000000000000000000000000000000000000000000000008152600401612bac90613f4e565b60405180910390fd5b612bbe81611e3f565b15612bfe576040517f08c379a0000000000000000000000000000000000000000000000000000000008152600401612bf590613e6e565b60405180910390fd5b612c0a6000838361294e565b6001600360008473ffffffffffffffffffffffffffffffffffffffff1673ffffffffffffffffffffffffffffffffffffffff1681526020019081526020016000206000828254612c5a91906141f1565b92505081905550816002600083815260200190815260200160002060006101000a81548173ffffffffffffffffffffffffffffffffffffffff021916908373ffffffffffffffffffffffffffffffffffffffff160217905550808273ffffffffffffffffffffffffffffffffffffffff16600073ffffffffffffffffffffffffffffffffffffffff167fddf252ad1be2c89b69c2b068fc378daa952ba7f163c4a11628f55a4df523b3ef60405160405180910390a45050565b600080823b905060008111915050919050565b6040518060c001604052806000815260200160608152602001606081526020016000815260200160008152602001600081525090565b828054612d68906143bc565b90600052602060002090601f016020900481019282612d8a5760008555612dd1565b82601f10612da357805160ff1916838001178555612dd1565b82800160010185558215612dd1579182015b82811115612dd0578251825591602001919060010190612db5565b5b509050612dde9190612de2565b5090565b5b80821115612dfb576000816000905550600101612de3565b5090565b6000612e12612e0d84614134565b614103565b905082815260208101848484011115612e2a57600080fd5b612e3584828561437a565b509392505050565b600081359050612e4c81614535565b92915050565b600081359050612e618161454c565b92915050565b600081359050612e7681614563565b92915050565b600081519050612e8b81614563565b92915050565b600082601f830112612ea257600080fd5b8135612eb2848260208601612dff565b91505092915050565b600081359050612eca8161457a565b92915050565b600060208284031215612ee257600080fd5b6000612ef084828501612e3d565b91505092915050565b60008060408385031215612f0c57600080fd5b6000612f1a85828601612e3d565b9250506020612f2b85828601612e3d565b9150509250929050565b600080600060608486031215612f4a57600080fd5b6000612f5886828701612e3d565b9350506020612f6986828701612e3d565b9250506040612f7a86828701612ebb565b9150509250925092565b60008060008060808587031215612f9a57600080fd5b6000612fa887828801612e3d565b9450506020612fb987828801612e3d565b9350506040612fca87828801612ebb565b925050606085013567ffffffffffffffff811115612fe757600080fd5b612ff387828801612e91565b91505092959194509250565b6000806040838503121561301257600080fd5b600061302085828601612e3d565b925050602061303185828601612e52565b9150509250929050565b6000806040838503121561304e57600080fd5b600061305c85828601612e3d565b925050602061306d85828601612ebb565b9150509250929050565b60006020828403121561308957600080fd5b600061309784828501612e67565b91505092915050565b6000602082840312156130b257600080fd5b60006130c084828501612e7c565b91505092915050565b6000602082840312156130db57600080fd5b60006130e984828501612ebb565b91505092915050565b60006130fe8383613a6f565b905092915050565b61310f81614306565b82525050565b600061312082614174565b61312a81856141a2565b93508360208202850161313c85614164565b8060005b85811015613178578484038952815161315985826130f2565b945061316483614195565b925060208a01995050600181019050613140565b50829750879550505050505092915050565b61319381614318565b82525050565b60006131a48261417f565b6131ae81856141b3565b93506131be818560208601614389565b6131c781614524565b840191505092915050565b60006131dd8261418a565b6131e781856141c4565b93506131f7818560208601614389565b61320081614524565b840191505092915050565b60006132168261418a565b61322081856141d5565b9350613230818560208601614389565b61323981614524565b840191505092915050565b600061324f8261418a565b61325981856141e6565b9350613269818560208601614389565b80840191505092915050565b6000613282600b836141e6565b91507f202d2d204e465420233a200000000000000000000000000000000000000000006000830152600b82019050919050565b60006132c26032836141d5565b91507f4552433732313a207472616e7366657220746f206e6f6e20455243373231526560008301527f63656976657220696d706c656d656e74657200000000000000000000000000006020830152604082019050919050565b6000613328601c836141d5565b91507f4552433732313a20746f6b656e20616c7265616479206d696e746564000000006000830152602082019050919050565b6000613368600e836141e6565b91507f2c20226d61785f76616c7565223a0000000000000000000000000000000000006000830152600e82019050919050565b60006133a86024836141d5565b91507f4552433732313a207472616e7366657220746f20746865207a65726f2061646460008301527f72657373000000000000000000000000000000000000000000000000000000006020830152604082019050919050565b600061340e6019836141d5565b91507f4552433732313a20617070726f766520746f2063616c6c6572000000000000006000830152602082019050919050565b600061344e602c836141d5565b91507f4552433732313a206f70657261746f7220717565727920666f72206e6f6e657860008301527f697374656e7420746f6b656e00000000000000000000000000000000000000006020830152604082019050919050565b60006134b46038836141d5565b91507f4552433732313a20617070726f76652063616c6c6572206973206e6f74206f7760008301527f6e6572206e6f7220617070726f76656420666f7220616c6c00000000000000006020830152604082019050919050565b600061351a602a836141d5565b91507f4552433732313a2062616c616e636520717565727920666f7220746865207a6560008301527f726f2061646472657373000000000000000000000000000000000000000000006020830152604082019050919050565b60006135806029836141d5565b91507f4552433732313a206f776e657220717565727920666f72206e6f6e657869737460008301527f656e7420746f6b656e00000000000000000000000000000000000000000000006020830152604082019050919050565b60006135e66062836141e6565b91507f222c20226465736372697074696f6e223a20225468697320697320616e204e4660008301527f542074686174206c6574732070656f706c6520706c617920696e20746865206760208301527f616d65204d657461766572736520536c6179657221222c2022696d616765223a60408301527f20220000000000000000000000000000000000000000000000000000000000006060830152606282019050919050565b60006136986004836141e6565b91507f7d205d7d000000000000000000000000000000000000000000000000000000006000830152600482019050919050565b60006136d86020836141d5565b91507f4552433732313a206d696e7420746f20746865207a65726f20616464726573736000830152602082019050919050565b60006137186011836141d5565b91507f426f7373206973204465616420796f6f210000000000000000000000000000006000830152602082019050919050565b6000613758602c836141d5565b91507f4552433732313a20617070726f76656420717565727920666f72206e6f6e657860008301527f697374656e7420746f6b656e00000000000000000000000000000000000000006020830152604082019050919050565b60006137be6029836141d5565b91507f4552433732313a207472616e73666572206f6620746f6b656e2074686174206960008301527f73206e6f74206f776e00000000000000000000000000000000000000000000006020830152604082019050919050565b6000613824600a836141e6565b91507f7b226e616d65223a2022000000000000000000000000000000000000000000006000830152600a82019050919050565b60006138646021836141d5565b91507f4552433732313a20617070726f76616c20746f2063757272656e74206f776e6560008301527f72000000000000000000000000000000000000000000000000000000000000006020830152604082019050919050565b60006138ca600e836141d5565b91507f506c6179657220697320446561640000000000000000000000000000000000006000830152602082019050919050565b600061390a601d836141e6565b91507f646174613a6170706c69636174696f6e2f6a736f6e3b6261736536342c0000006000830152601d82019050919050565b600061394a6031836141d5565b91507f4552433732313a207472616e736665722063616c6c6572206973206e6f74206f60008301527f776e6572206e6f7220617070726f7665640000000000000000000000000000006020830152604082019050919050565b60006139b0603d836141e6565b91507f222c202261747472696275746573223a205b207b202274726169745f7479706560008301527f223a20224865616c746820506f696e7473222c202276616c7565223a200000006020830152603d82019050919050565b6000613a16602d836141e6565b91507f7d2c207b202274726169745f74797065223a202241747461636b2044616d616760008301527f65222c202276616c7565223a20000000000000000000000000000000000000006020830152602d82019050919050565b600060c083016000830151613a876000860182613b8f565b5060208301518482036020860152613a9f82826131d2565b91505060408301518482036040860152613ab982826131d2565b9150506060830151613ace6060860182613b8f565b506080830151613ae16080860182613b8f565b5060a0830151613af460a0860182613b8f565b508091505092915050565b600060c083016000830151613b176000860182613b8f565b5060208301518482036020860152613b2f82826131d2565b91505060408301518482036040860152613b4982826131d2565b9150506060830151613b5e6060860182613b8f565b506080830151613b716080860182613b8f565b5060a0830151613b8460a0860182613b8f565b508091505092915050565b613b9881614370565b82525050565b613ba781614370565b82525050565b6000613bb882613817565b9150613bc48289613244565b9150613bcf82613275565b9150613bdb8288613244565b9150613be6826135d9565b9150613bf28287613244565b9150613bfd826139a3565b9150613c098286613244565b9150613c148261335b565b9150613c208285613244565b9150613c2b82613a09565b9150613c378284613244565b9150613c428261368b565b9150819050979650505050505050565b6000613c5d826138fd565b9150613c698284613244565b915081905092915050565b6000602082019050613c896000830184613106565b92915050565b6000608082019050613ca46000830187613106565b613cb16020830186613106565b613cbe6040830185613b9e565b8181036060830152613cd08184613199565b905095945050505050565b6000606082019050613cf06000830186613106565b613cfd6020830185613b9e565b613d0a6040830184613b9e565b949350505050565b60006020820190508181036000830152613d2c8184613115565b905092915050565b6000602082019050613d49600083018461318a565b92915050565b60006020820190508181036000830152613d69818461320b565b905092915050565b60006080820190508181036000830152613d8b818761320b565b90508181036020830152613d9f818661320b565b9050613dae6040830185613b9e565b8181036060830152613dc0818461320b565b905095945050505050565b60006080820190508181036000830152613de5818761320b565b90508181036020830152613df9818661320b565b9050613e086040830185613b9e565b613e156060830184613b9e565b95945050505050565b60006040820190508181036000830152613e38818561320b565b9050613e476020830184613b9e565b9392505050565b60006020820190508181036000830152613e67816132b5565b9050919050565b60006020820190508181036000830152613e878161331b565b9050919050565b60006020820190508181036000830152613ea78161339b565b9050919050565b60006020820190508181036000830152613ec781613401565b9050919050565b60006020820190508181036000830152613ee781613441565b9050919050565b60006020820190508181036000830152613f07816134a7565b9050919050565b60006020820190508181036000830152613f278161350d565b9050919050565b60006020820190508181036000830152613f4781613573565b9050919050565b60006020820190508181036000830152613f67816136cb565b9050919050565b60006020820190508181036000830152613f878161370b565b9050919050565b60006020820190508181036000830152613fa78161374b565b9050919050565b60006020820190508181036000830152613fc7816137b1565b9050919050565b60006020820190508181036000830152613fe781613857565b9050919050565b60006020820190508181036000830152614007816138bd565b9050919050565b600060208201905081810360008301526140278161393d565b9050919050565b600060208201905081810360008301526140488184613aff565b905092915050565b60006020820190506140656000830184613b9e565b92915050565b600060c0820190506140806000830189613b9e565b8181036020830152614092818861320b565b905081810360408301526140a6818761320b565b90506140b56060830186613b9e565b6140c26080830185613b9e565b6140cf60a0830184613b9e565b979650505050505050565b60006040820190506140ef6000830185613b9e565b6140fc6020830184613b9e565b9392505050565b6000604051905081810181811067ffffffffffffffff8211171561412a576141296144f5565b5b8060405250919050565b600067ffffffffffffffff82111561414f5761414e6144f5565b5b601f19601f8301169050602081019050919050565b6000819050602082019050919050565b600081519050919050565b600081519050919050565b600081519050919050565b6000602082019050919050565b600082825260208201905092915050565b600082825260208201905092915050565b600082825260208201905092915050565b600082825260208201905092915050565b600081905092915050565b60006141fc82614370565b915061420783614370565b9250827fffffffffffffffffffffffffffffffffffffffffffffffffffffffffffffffff0382111561423c5761423b614468565b5b828201905092915050565b600061425282614370565b915061425d83614370565b92508261426d5761426c614497565b5b828204905092915050565b600061428382614370565b915061428e83614370565b9250817fffffffffffffffffffffffffffffffffffffffffffffffffffffffffffffffff04831182151516156142c7576142c6614468565b5b828202905092915050565b60006142dd82614370565b91506142e883614370565b9250828210156142fb576142fa614468565b5b828203905092915050565b600061431182614350565b9050919050565b60008115159050919050565b60007fffffffff0000000000000000000000000000000000000000000000000000000082169050919050565b600073ffffffffffffffffffffffffffffffffffffffff82169050919050565b6000819050919050565b82818337600083830152505050565b60005b838110156143a757808201518184015260208101905061438c565b838111156143b6576000848401525b50505050565b600060028204905060018216806143d457607f821691505b602082108114156143e8576143e76144c6565b5b50919050565b60006143f982614370565b91507fffffffffffffffffffffffffffffffffffffffffffffffffffffffffffffffff82141561442c5761442b614468565b5b600182019050919050565b600061444282614370565b915061444d83614370565b92508261445d5761445c614497565b5b828206905092915050565b7f4e487b7100000000000000000000000000000000000000000000000000000000600052601160045260246000fd5b7f4e487b7100000000000000000000000000000000000000000000000000000000600052601260045260246000fd5b7f4e487b7100000000000000000000000000000000000000000000000000000000600052602260045260246000fd5b7f4e487b7100000000000000000000000000000000000000000000000000000000600052604160045260246000fd5b6000601f19601f8301169050919050565b61453e81614306565b811461454957600080fd5b50565b61455581614318565b811461456057600080fd5b50565b61456c81614324565b811461457757600080fd5b50565b61458381614370565b811461458e57600080fd5b5056fe506c617965722061747461636b656420626f73732e204e657720626f73732068703a2025734142434445464748494a4b4c4d4e4f505152535455565758595a6162636465666768696a6b6c6d6e6f707172737475767778797a303132333435363738392b2f426f73732061747461636b656420706c617965722e204e657720706c617965722068703a2025730a0a506c6179657220772f206368617261637465722025732061626f757420746f2061747461636b2e2048617320257320485020616e64202573204144a26469706673582212205fb15db691140bba1c644344940d8e7edadb4c135baf29fe94fefda98a34968464736f6c63430008000033446f6e6520696e697469616c697a696e6720257320772f2048502025732c20696d67202573",
  "linkReferences": {},
  "deployedLinkReferences": {}
}